{
  "_format": "hh-sol-artifact-1",
  "contractName": "Signup_signin",
  "sourceName": "contracts/Signup_signin.sol",
  "abi": [
    {
      "inputs": [
        {
          "internalType": "string",
          "name": "_imgHash",
          "type": "string"
        },
        {
          "internalType": "string",
          "name": "desc",
          "type": "string"
        },
        {
          "internalType": "string",
          "name": "imgText",
          "type": "string"
        }
      ],
      "name": "addPostImage",
      "outputs": [],
      "stateMutability": "nonpayable",
      "type": "function"
    },
    {
      "inputs": [],
      "name": "getAllPosts",
      "outputs": [
        {
          "components": [
            {
              "internalType": "address",
              "name": "user",
              "type": "address"
            },
            {
              "internalType": "string",
              "name": "imageHash",
              "type": "string"
            },
            {
              "internalType": "string",
              "name": "description",
              "type": "string"
            },
            {
              "internalType": "string",
              "name": "imageText",
              "type": "string"
            }
          ],
          "internalType": "struct Signup_signin.Post[]",
          "name": "",
          "type": "tuple[]"
        }
      ],
      "stateMutability": "view",
      "type": "function"
    },
    {
      "inputs": [],
      "name": "imageCount",
      "outputs": [
        {
          "internalType": "uint256",
          "name": "",
          "type": "uint256"
        }
      ],
      "stateMutability": "view",
      "type": "function"
    },
    {
      "inputs": [
        {
          "internalType": "address[]",
          "name": "userAddress",
          "type": "address[]"
        },
        {
          "internalType": "address",
          "name": "addressToCheck",
          "type": "address"
        }
      ],
      "name": "isAddressPresent",
      "outputs": [
        {
          "internalType": "bool",
          "name": "",
          "type": "bool"
        }
      ],
      "stateMutability": "pure",
      "type": "function"
    },
    {
      "stateMutability": "payable",
      "type": "receive"
    }
  ],
  "bytecode": "0x60806040526000805534801561001457600080fd5b50610fd9806100246000396000f3fe6080604052600436106100435760003560e01c806326f49e3a1461004f578063305611001461008c57806359737a54146100b757806392053b63146100e05761004a565b3661004a57005b600080fd5b34801561005b57600080fd5b5061007660048036038101906100719190610a8d565b61010b565b6040516100839190610b04565b60405180910390f35b34801561009857600080fd5b506100a1610193565b6040516100ae9190610ce9565b60405180910390f35b3480156100c357600080fd5b506100de60048036038101906100d99190610dc0565b610566565b005b3480156100ec57600080fd5b506100f56107db565b6040516101029190610e80565b60405180910390f35b600080600090505b8351811015610187578273ffffffffffffffffffffffffffffffffffffffff1684828151811061014657610145610e9b565b5b602002602001015173ffffffffffffffffffffffffffffffffffffffff16141561017457600191505061018d565b808061017f90610ef9565b915050610113565b50600090505b92915050565b60606000805467ffffffffffffffff8111156101b2576101b16108ec565b5b6040519080825280602002602001820160405280156101eb57816020015b6101d86107e1565b8152602001906001900390816101d05790505b5090506000805b60028054905081101561055d576000600160006002848154811061021957610218610e9b565b5b9060005260206000200160009054906101000a900473ffffffffffffffffffffffffffffffffffffffff1673ffffffffffffffffffffffffffffffffffffffff1673ffffffffffffffffffffffffffffffffffffffff168152602001908152602001600020805480602002602001604051908101604052809291908181526020016000905b828210156104dc57838290600052602060002090600402016040518060800160405290816000820160009054906101000a900473ffffffffffffffffffffffffffffffffffffffff1673ffffffffffffffffffffffffffffffffffffffff1673ffffffffffffffffffffffffffffffffffffffff16815260200160018201805461032790610f71565b80601f016020809104026020016040519081016040528092919081815260200182805461035390610f71565b80156103a05780601f10610375576101008083540402835291602001916103a0565b820191906000526020600020905b81548152906001019060200180831161038357829003601f168201915b505050505081526020016002820180546103b990610f71565b80601f01602080910402602001604051908101604052809291908181526020018280546103e590610f71565b80156104325780601f1061040757610100808354040283529160200191610432565b820191906000526020600020905b81548152906001019060200180831161041557829003601f168201915b5050505050815260200160038201805461044b90610f71565b80601f016020809104026020016040519081016040528092919081815260200182805461047790610f71565b80156104c45780601f10610499576101008083540402835291602001916104c4565b820191906000526020600020905b8154815290600101906020018083116104a757829003601f168201915b5050505050815250508152602001906001019061029e565b50505050905060005b81518110156105485781818151811061050157610500610e9b565b5b602002602001015185858151811061051c5761051b610e9b565b5b6020026020010181905250838061053290610ef9565b945050808061054090610ef9565b9150506104e5565b5050808061055590610ef9565b9150506101f2565b50819250505090565b600083511161057457600080fd5b600060405180608001604052803373ffffffffffffffffffffffffffffffffffffffff168152602001858152602001848152602001838152509050600160003373ffffffffffffffffffffffffffffffffffffffff1673ffffffffffffffffffffffffffffffffffffffff16815260200190815260200160002081908060018154018082558091505060019003906000526020600020906004020160009091909190915060008201518160000160006101000a81548173ffffffffffffffffffffffffffffffffffffffff021916908373ffffffffffffffffffffffffffffffffffffffff160217905550602082015181600101908051906020019061067b92919061081f565b50604082015181600201908051906020019061069892919061081f565b5060608201518160030190805190602001906106b592919061081f565b5050506000808154809291906106ca90610ef9565b91905055506000610761600280548060200260200160405190810160405280929190818152602001828054801561075657602002820191906000526020600020905b8160009054906101000a900473ffffffffffffffffffffffffffffffffffffffff1673ffffffffffffffffffffffffffffffffffffffff168152602001906001019080831161070c575b50505050503361010b565b90506000151581151514156107d4576002339080600181540180825580915050600190039060005260206000200160009091909190916101000a81548173ffffffffffffffffffffffffffffffffffffffff021916908373ffffffffffffffffffffffffffffffffffffffff1602179055505b5050505050565b60005481565b6040518060800160405280600073ffffffffffffffffffffffffffffffffffffffff1681526020016060815260200160608152602001606081525090565b82805461082b90610f71565b90600052602060002090601f01602090048101928261084d5760008555610894565b82601f1061086657805160ff1916838001178555610894565b82800160010185558215610894579182015b82811115610893578251825591602001919060010190610878565b5b5090506108a191906108a5565b5090565b5b808211156108be5760008160009055506001016108a6565b5090565b6000604051905090565b600080fd5b600080fd5b600080fd5b6000601f19601f8301169050919050565b7f4e487b7100000000000000000000000000000000000000000000000000000000600052604160045260246000fd5b610924826108db565b810181811067ffffffffffffffff82111715610943576109426108ec565b5b80604052505050565b60006109566108c2565b9050610962828261091b565b919050565b600067ffffffffffffffff821115610982576109816108ec565b5b602082029050602081019050919050565b600080fd5b600073ffffffffffffffffffffffffffffffffffffffff82169050919050565b60006109c382610998565b9050919050565b6109d3816109b8565b81146109de57600080fd5b50565b6000813590506109f0816109ca565b92915050565b6000610a09610a0484610967565b61094c565b90508083825260208201905060208402830185811115610a2c57610a2b610993565b5b835b81811015610a555780610a4188826109e1565b845260208401935050602081019050610a2e565b5050509392505050565b600082601f830112610a7457610a736108d6565b5b8135610a848482602086016109f6565b91505092915050565b60008060408385031215610aa457610aa36108cc565b5b600083013567ffffffffffffffff811115610ac257610ac16108d1565b5b610ace85828601610a5f565b9250506020610adf858286016109e1565b9150509250929050565b60008115159050919050565b610afe81610ae9565b82525050565b6000602082019050610b196000830184610af5565b92915050565b600081519050919050565b600082825260208201905092915050565b6000819050602082019050919050565b610b54816109b8565b82525050565b600081519050919050565b600082825260208201905092915050565b60005b83811015610b94578082015181840152602081019050610b79565b83811115610ba3576000848401525b50505050565b6000610bb482610b5a565b610bbe8185610b65565b9350610bce818560208601610b76565b610bd7816108db565b840191505092915050565b6000608083016000830151610bfa6000860182610b4b565b5060208301518482036020860152610c128282610ba9565b91505060408301518482036040860152610c2c8282610ba9565b91505060608301518482036060860152610c468282610ba9565b9150508091505092915050565b6000610c5f8383610be2565b905092915050565b6000602082019050919050565b6000610c7f82610b1f565b610c898185610b2a565b935083602082028501610c9b85610b3b565b8060005b85811015610cd75784840389528151610cb88582610c53565b9450610cc383610c67565b925060208a01995050600181019050610c9f565b50829750879550505050505092915050565b60006020820190508181036000830152610d038184610c74565b905092915050565b600080fd5b600067ffffffffffffffff821115610d2b57610d2a6108ec565b5b610d34826108db565b9050602081019050919050565b82818337600083830152505050565b6000610d63610d5e84610d10565b61094c565b905082815260208101848484011115610d7f57610d7e610d0b565b5b610d8a848285610d41565b509392505050565b600082601f830112610da757610da66108d6565b5b8135610db7848260208601610d50565b91505092915050565b600080600060608486031215610dd957610dd86108cc565b5b600084013567ffffffffffffffff811115610df757610df66108d1565b5b610e0386828701610d92565b935050602084013567ffffffffffffffff811115610e2457610e236108d1565b5b610e3086828701610d92565b925050604084013567ffffffffffffffff811115610e5157610e506108d1565b5b610e5d86828701610d92565b9150509250925092565b6000819050919050565b610e7a81610e67565b82525050565b6000602082019050610e956000830184610e71565b92915050565b7f4e487b7100000000000000000000000000000000000000000000000000000000600052603260045260246000fd5b7f4e487b7100000000000000000000000000000000000000000000000000000000600052601160045260246000fd5b6000610f0482610e67565b91507fffffffffffffffffffffffffffffffffffffffffffffffffffffffffffffffff821415610f3757610f36610eca565b5b600182019050919050565b7f4e487b7100000000000000000000000000000000000000000000000000000000600052602260045260246000fd5b60006002820490506001821680610f8957607f821691505b60208210811415610f9d57610f9c610f42565b5b5091905056fea2646970667358221220c39cc6378f33ae85c4c2b2051380dc9afede3865d1fdca9c06d308ee49e763b264736f6c63430008090033",
  "linkReferences": {},
  "deployedLinkReferences": {}
}