{
  "_format": "hh-sol-artifact-1",
  "contractName": "Signup_signin",
  "sourceName": "contracts/Signup_signin.sol",
  "abi": [
    {
      "inputs": [
        {
          "internalType": "string",
          "name": "_imgHash",
          "type": "string"
        },
        {
          "internalType": "string",
          "name": "desc",
          "type": "string"
        },
        {
          "internalType": "string",
          "name": "imgText",
          "type": "string"
        }
      ],
      "name": "addPostImage",
      "outputs": [],
      "stateMutability": "nonpayable",
      "type": "function"
    },
    {
      "inputs": [
        {
          "internalType": "address",
          "name": "key",
          "type": "address"
        }
      ],
      "name": "checkUser",
      "outputs": [
        {
          "internalType": "bool",
          "name": "",
          "type": "bool"
        }
      ],
      "stateMutability": "view",
      "type": "function"
    },
    {
      "inputs": [
        {
          "internalType": "string",
          "name": "name",
          "type": "string"
        }
      ],
      "name": "createAccount",
      "outputs": [],
      "stateMutability": "nonpayable",
      "type": "function"
    },
    {
      "inputs": [],
      "name": "getAllAppUser",
      "outputs": [
        {
          "components": [
            {
              "internalType": "string",
              "name": "name",
              "type": "string"
            },
            {
              "internalType": "address",
              "name": "userAddress",
              "type": "address"
            }
          ],
          "internalType": "struct Signup_signin.AllUsers[]",
          "name": "",
          "type": "tuple[]"
        }
      ],
      "stateMutability": "view",
      "type": "function"
    },
    {
      "inputs": [],
      "name": "getAllPosts",
      "outputs": [
        {
          "components": [
            {
              "internalType": "string",
              "name": "name",
              "type": "string"
            },
            {
              "internalType": "address",
              "name": "user",
              "type": "address"
            },
            {
              "internalType": "string",
              "name": "imageHash",
              "type": "string"
            },
            {
              "internalType": "string",
              "name": "description",
              "type": "string"
            },
            {
              "internalType": "string",
              "name": "imageText",
              "type": "string"
            }
          ],
          "internalType": "struct Signup_signin.AllPost[]",
          "name": "",
          "type": "tuple[]"
        }
      ],
      "stateMutability": "view",
      "type": "function"
    },
    {
      "inputs": [
        {
          "internalType": "address",
          "name": "key",
          "type": "address"
        }
      ],
      "name": "getUserName",
      "outputs": [
        {
          "internalType": "string",
          "name": "",
          "type": "string"
        }
      ],
      "stateMutability": "view",
      "type": "function"
    },
    {
      "inputs": [],
      "name": "imageCount",
      "outputs": [
        {
          "internalType": "uint256",
          "name": "",
          "type": "uint256"
        }
      ],
      "stateMutability": "view",
      "type": "function"
    },
    {
      "inputs": [
        {
          "internalType": "address[]",
          "name": "userAddress",
          "type": "address[]"
        },
        {
          "internalType": "address",
          "name": "addressToCheck",
          "type": "address"
        }
      ],
      "name": "isAddressPresent",
      "outputs": [
        {
          "internalType": "bool",
          "name": "",
          "type": "bool"
        }
      ],
      "stateMutability": "pure",
      "type": "function"
    },
    {
      "inputs": [
        {
          "internalType": "address",
          "name": "friend_key",
          "type": "address"
        }
      ],
      "name": "readMessage",
      "outputs": [
        {
          "components": [
            {
              "internalType": "address",
              "name": "sender",
              "type": "address"
            },
            {
              "internalType": "uint256",
              "name": "timestamp",
              "type": "uint256"
            },
            {
              "internalType": "string",
              "name": "msg",
              "type": "string"
            }
          ],
          "internalType": "struct Signup_signin.Message[]",
          "name": "",
          "type": "tuple[]"
        }
      ],
      "stateMutability": "view",
      "type": "function"
    },
    {
      "inputs": [
        {
          "internalType": "address",
          "name": "friend_key",
          "type": "address"
        },
        {
          "internalType": "string",
          "name": "_msg",
          "type": "string"
        }
      ],
      "name": "sendMessage",
      "outputs": [],
      "stateMutability": "nonpayable",
      "type": "function"
    },
    {
      "stateMutability": "payable",
      "type": "receive"
    }
  ],
  "bytecode": "0x60806040526000805534801561001457600080fd5b506122d6806100246000396000f3fe6080604052600436106100955760003560e01c806359737a541161005957806359737a54146101ac57806392053b63146101d5578063a24d41de14610200578063d84f55ee1461022b578063de6f24bb146102685761009c565b80631e9d48cf146100a1578063255e9c11146100de57806326f49e3a1461011b578063298daf5b1461015857806330561100146101815761009c565b3661009c57005b600080fd5b3480156100ad57600080fd5b506100c860048036038101906100c39190611516565b610291565b6040516100d5919061155e565b60405180910390f35b3480156100ea57600080fd5b5061010560048036038101906101009190611516565b6102eb565b604051610112919061174c565b60405180910390f35b34801561012757600080fd5b50610142600480360381019061013d91906118b6565b61045e565b60405161014f919061155e565b60405180910390f35b34801561016457600080fd5b5061017f600480360381019061017a919061196d565b6104e6565b005b34801561018d57600080fd5b506101966106d1565b6040516101a39190611b07565b60405180910390f35b3480156101b857600080fd5b506101d360048036038101906101ce9190611bde565b610a16565b005b3480156101e157600080fd5b506101ea610eaf565b6040516101f79190611c94565b60405180910390f35b34801561020c57600080fd5b50610215610eb5565b6040516102229190611dae565b60405180910390f35b34801561023757600080fd5b50610252600480360381019061024d9190611516565b610ffc565b60405161025f9190611e1a565b60405180910390f35b34801561027457600080fd5b5061028f600480360381019061028a9190611e3c565b611118565b005b600080600160008473ffffffffffffffffffffffffffffffffffffffff1673ffffffffffffffffffffffffffffffffffffffff16815260200190815260200160002060000180546102e190611ecb565b9050119050919050565b606060006102f933846112e3565b905060056000828152602001908152602001600020805480602002602001604051908101604052809291908181526020016000905b8282101561045257838290600052602060002090600302016040518060600160405290816000820160009054906101000a900473ffffffffffffffffffffffffffffffffffffffff1673ffffffffffffffffffffffffffffffffffffffff1673ffffffffffffffffffffffffffffffffffffffff168152602001600182015481526020016002820180546103c190611ecb565b80601f01602080910402602001604051908101604052809291908181526020018280546103ed90611ecb565b801561043a5780601f1061040f5761010080835404028352916020019161043a565b820191906000526020600020905b81548152906001019060200180831161041d57829003601f168201915b5050505050815250508152602001906001019061032e565b50505050915050919050565b600080600090505b83518110156104da578273ffffffffffffffffffffffffffffffffffffffff1684828151811061049957610498611efd565b5b602002602001015173ffffffffffffffffffffffffffffffffffffffff1614156104c75760019150506104e0565b80806104d290611f5b565b915050610466565b50600090505b92915050565b600015156104f333610291565b151514610535576040517f08c379a000000000000000000000000000000000000000000000000000000000815260040161052c90611ff0565b60405180910390fd5b6000828290501161057b576040517f08c379a00000000000000000000000000000000000000000000000000000000081526004016105729061205c565b60405180910390fd5b8181600160003373ffffffffffffffffffffffffffffffffffffffff1673ffffffffffffffffffffffffffffffffffffffff16815260200190815260200160002060000191906105cc92919061137b565b506002604051806040016040528084848080601f016020809104026020016040519081016040528093929190818152602001838380828437600081840152601f19601f8201169050808301925050505050505081526020013373ffffffffffffffffffffffffffffffffffffffff1681525090806001815401808255809150506001900390600052602060002090600202016000909190919091506000820151816000019080519060200190610683929190611401565b5060208201518160010160006101000a81548173ffffffffffffffffffffffffffffffffffffffff021916908373ffffffffffffffffffffffffffffffffffffffff16021790555050505050565b606060006004805490501161071b576040517f08c379a0000000000000000000000000000000000000000000000000000000008152600401610712906120c8565b60405180910390fd5b6004805480602002602001604051908101604052809291908181526020016000905b82821015610a0d57838290600052602060002090600502016040518060a001604052908160008201805461077090611ecb565b80601f016020809104026020016040519081016040528092919081815260200182805461079c90611ecb565b80156107e95780601f106107be576101008083540402835291602001916107e9565b820191906000526020600020905b8154815290600101906020018083116107cc57829003601f168201915b505050505081526020016001820160009054906101000a900473ffffffffffffffffffffffffffffffffffffffff1673ffffffffffffffffffffffffffffffffffffffff1673ffffffffffffffffffffffffffffffffffffffff16815260200160028201805461085890611ecb565b80601f016020809104026020016040519081016040528092919081815260200182805461088490611ecb565b80156108d15780601f106108a6576101008083540402835291602001916108d1565b820191906000526020600020905b8154815290600101906020018083116108b457829003601f168201915b505050505081526020016003820180546108ea90611ecb565b80601f016020809104026020016040519081016040528092919081815260200182805461091690611ecb565b80156109635780601f1061093857610100808354040283529160200191610963565b820191906000526020600020905b81548152906001019060200180831161094657829003601f168201915b5050505050815260200160048201805461097c90611ecb565b80601f01602080910402602001604051908101604052809291908181526020018280546109a890611ecb565b80156109f55780601f106109ca576101008083540402835291602001916109f5565b820191906000526020600020905b8154815290600101906020018083116109d857829003601f168201915b5050505050815250508152602001906001019061073d565b50505050905090565b610a1f33610291565b610a5e576040517f08c379a0000000000000000000000000000000000000000000000000000000008152600401610a5590612134565b60405180910390fd5b6000835111610a6c57600080fd5b60006040518060a00160405280600160003373ffffffffffffffffffffffffffffffffffffffff1673ffffffffffffffffffffffffffffffffffffffff1681526020019081526020016000206000018054610ac690611ecb565b80601f0160208091040260200160405190810160405280929190818152602001828054610af290611ecb565b8015610b3f5780601f10610b1457610100808354040283529160200191610b3f565b820191906000526020600020905b815481529060010190602001808311610b2257829003601f168201915b505050505081526020013373ffffffffffffffffffffffffffffffffffffffff16815260200185815260200184815260200183815250905060006040518060a00160405280600160003373ffffffffffffffffffffffffffffffffffffffff1673ffffffffffffffffffffffffffffffffffffffff1681526020019081526020016000206000018054610bd190611ecb565b80601f0160208091040260200160405190810160405280929190818152602001828054610bfd90611ecb565b8015610c4a5780601f10610c1f57610100808354040283529160200191610c4a565b820191906000526020600020905b815481529060010190602001808311610c2d57829003601f168201915b505050505081526020013373ffffffffffffffffffffffffffffffffffffffff168152602001868152602001858152602001848152509050600360003373ffffffffffffffffffffffffffffffffffffffff1673ffffffffffffffffffffffffffffffffffffffff1681526020019081526020016000208290806001815401808255809150506001900390600052602060002090600502016000909190919091506000820151816000019080519060200190610d07929190611401565b5060208201518160010160006101000a81548173ffffffffffffffffffffffffffffffffffffffff021916908373ffffffffffffffffffffffffffffffffffffffff1602179055506040820151816002019080519060200190610d6b929190611401565b506060820151816003019080519060200190610d88929190611401565b506080820151816004019080519060200190610da5929190611401565b50505060048190806001815401808255809150506001900390600052602060002090600502016000909190919091506000820151816000019080519060200190610df0929190611401565b5060208201518160010160006101000a81548173ffffffffffffffffffffffffffffffffffffffff021916908373ffffffffffffffffffffffffffffffffffffffff1602179055506040820151816002019080519060200190610e54929190611401565b506060820151816003019080519060200190610e71929190611401565b506080820151816004019080519060200190610e8e929190611401565b505050600080815480929190610ea390611f5b565b91905055505050505050565b60005481565b60606002805480602002602001604051908101604052809291908181526020016000905b82821015610ff35783829060005260206000209060020201604051806040016040529081600082018054610f0c90611ecb565b80601f0160208091040260200160405190810160405280929190818152602001828054610f3890611ecb565b8015610f855780601f10610f5a57610100808354040283529160200191610f85565b820191906000526020600020905b815481529060010190602001808311610f6857829003601f168201915b505050505081526020016001820160009054906101000a900473ffffffffffffffffffffffffffffffffffffffff1673ffffffffffffffffffffffffffffffffffffffff1673ffffffffffffffffffffffffffffffffffffffff168152505081526020019060010190610ed9565b50505050905090565b606061100782610291565b611046576040517f08c379a000000000000000000000000000000000000000000000000000000000815260040161103d90612134565b60405180910390fd5b600160008373ffffffffffffffffffffffffffffffffffffffff1673ffffffffffffffffffffffffffffffffffffffff168152602001908152602001600020600001805461109390611ecb565b80601f01602080910402602001604051908101604052809291908181526020018280546110bf90611ecb565b801561110c5780601f106110e15761010080835404028352916020019161110c565b820191906000526020600020905b8154815290600101906020018083116110ef57829003601f168201915b50505050509050919050565b61112133610291565b611160576040517f08c379a0000000000000000000000000000000000000000000000000000000008152600401611157906121a0565b60405180910390fd5b61116983610291565b6111a8576040517f08c379a000000000000000000000000000000000000000000000000000000000815260040161119f9061220c565b60405180910390fd5b60006111b433856112e3565b9050600060405180606001604052803373ffffffffffffffffffffffffffffffffffffffff16815260200142815260200185858080601f016020809104026020016040519081016040528093929190818152602001838380828437600081840152601f19601f8201169050808301925050505050505081525090506005600083815260200190815260200160002081908060018154018082558091505060019003906000526020600020906003020160009091909190915060008201518160000160006101000a81548173ffffffffffffffffffffffffffffffffffffffff021916908373ffffffffffffffffffffffffffffffffffffffff1602179055506020820151816001015560408201518160020190805190602001906112d9929190611401565b5050505050505050565b60008173ffffffffffffffffffffffffffffffffffffffff168373ffffffffffffffffffffffffffffffffffffffff16101561134957828260405160200161132c929190612274565b604051602081830303815290604052805190602001209050611375565b818360405160200161135c929190612274565b6040516020818303038152906040528051906020012090505b92915050565b82805461138790611ecb565b90600052602060002090601f0160209004810192826113a957600085556113f0565b82601f106113c257803560ff19168380011785556113f0565b828001600101855582156113f0579182015b828111156113ef5782358255916020019190600101906113d4565b5b5090506113fd9190611487565b5090565b82805461140d90611ecb565b90600052602060002090601f01602090048101928261142f5760008555611476565b82601f1061144857805160ff1916838001178555611476565b82800160010185558215611476579182015b8281111561147557825182559160200191906001019061145a565b5b5090506114839190611487565b5090565b5b808211156114a0576000816000905550600101611488565b5090565b6000604051905090565b600080fd5b600080fd5b600073ffffffffffffffffffffffffffffffffffffffff82169050919050565b60006114e3826114b8565b9050919050565b6114f3816114d8565b81146114fe57600080fd5b50565b600081359050611510816114ea565b92915050565b60006020828403121561152c5761152b6114ae565b5b600061153a84828501611501565b91505092915050565b60008115159050919050565b61155881611543565b82525050565b6000602082019050611573600083018461154f565b92915050565b600081519050919050565b600082825260208201905092915050565b6000819050602082019050919050565b6115ae816114d8565b82525050565b6000819050919050565b6115c7816115b4565b82525050565b600081519050919050565b600082825260208201905092915050565b60005b838110156116075780820151818401526020810190506115ec565b83811115611616576000848401525b50505050565b6000601f19601f8301169050919050565b6000611638826115cd565b61164281856115d8565b93506116528185602086016115e9565b61165b8161161c565b840191505092915050565b600060608301600083015161167e60008601826115a5565b50602083015161169160208601826115be565b50604083015184820360408601526116a9828261162d565b9150508091505092915050565b60006116c28383611666565b905092915050565b6000602082019050919050565b60006116e282611579565b6116ec8185611584565b9350836020820285016116fe85611595565b8060005b8581101561173a578484038952815161171b85826116b6565b9450611726836116ca565b925060208a01995050600181019050611702565b50829750879550505050505092915050565b6000602082019050818103600083015261176681846116d7565b905092915050565b600080fd5b7f4e487b7100000000000000000000000000000000000000000000000000000000600052604160045260246000fd5b6117ab8261161c565b810181811067ffffffffffffffff821117156117ca576117c9611773565b5b80604052505050565b60006117dd6114a4565b90506117e982826117a2565b919050565b600067ffffffffffffffff82111561180957611808611773565b5b602082029050602081019050919050565b600080fd5b600061183261182d846117ee565b6117d3565b905080838252602082019050602084028301858111156118555761185461181a565b5b835b8181101561187e578061186a8882611501565b845260208401935050602081019050611857565b5050509392505050565b600082601f83011261189d5761189c61176e565b5b81356118ad84826020860161181f565b91505092915050565b600080604083850312156118cd576118cc6114ae565b5b600083013567ffffffffffffffff8111156118eb576118ea6114b3565b5b6118f785828601611888565b925050602061190885828601611501565b9150509250929050565b600080fd5b60008083601f84011261192d5761192c61176e565b5b8235905067ffffffffffffffff81111561194a57611949611912565b5b6020830191508360018202830111156119665761196561181a565b5b9250929050565b60008060208385031215611984576119836114ae565b5b600083013567ffffffffffffffff8111156119a2576119a16114b3565b5b6119ae85828601611917565b92509250509250929050565b600081519050919050565b600082825260208201905092915050565b6000819050602082019050919050565b600060a0830160008301518482036000860152611a03828261162d565b9150506020830151611a1860208601826115a5565b5060408301518482036040860152611a30828261162d565b91505060608301518482036060860152611a4a828261162d565b91505060808301518482036080860152611a64828261162d565b9150508091505092915050565b6000611a7d83836119e6565b905092915050565b6000602082019050919050565b6000611a9d826119ba565b611aa781856119c5565b935083602082028501611ab9856119d6565b8060005b85811015611af55784840389528151611ad68582611a71565b9450611ae183611a85565b925060208a01995050600181019050611abd565b50829750879550505050505092915050565b60006020820190508181036000830152611b218184611a92565b905092915050565b600080fd5b600067ffffffffffffffff821115611b4957611b48611773565b5b611b528261161c565b9050602081019050919050565b82818337600083830152505050565b6000611b81611b7c84611b2e565b6117d3565b905082815260208101848484011115611b9d57611b9c611b29565b5b611ba8848285611b5f565b509392505050565b600082601f830112611bc557611bc461176e565b5b8135611bd5848260208601611b6e565b91505092915050565b600080600060608486031215611bf757611bf66114ae565b5b600084013567ffffffffffffffff811115611c1557611c146114b3565b5b611c2186828701611bb0565b935050602084013567ffffffffffffffff811115611c4257611c416114b3565b5b611c4e86828701611bb0565b925050604084013567ffffffffffffffff811115611c6f57611c6e6114b3565b5b611c7b86828701611bb0565b9150509250925092565b611c8e816115b4565b82525050565b6000602082019050611ca96000830184611c85565b92915050565b600081519050919050565b600082825260208201905092915050565b6000819050602082019050919050565b60006040830160008301518482036000860152611cf8828261162d565b9150506020830151611d0d60208601826115a5565b508091505092915050565b6000611d248383611cdb565b905092915050565b6000602082019050919050565b6000611d4482611caf565b611d4e8185611cba565b935083602082028501611d6085611ccb565b8060005b85811015611d9c5784840389528151611d7d8582611d18565b9450611d8883611d2c565b925060208a01995050600181019050611d64565b50829750879550505050505092915050565b60006020820190508181036000830152611dc88184611d39565b905092915050565b600082825260208201905092915050565b6000611dec826115cd565b611df68185611dd0565b9350611e068185602086016115e9565b611e0f8161161c565b840191505092915050565b60006020820190508181036000830152611e348184611de1565b905092915050565b600080600060408486031215611e5557611e546114ae565b5b6000611e6386828701611501565b935050602084013567ffffffffffffffff811115611e8457611e836114b3565b5b611e9086828701611917565b92509250509250925092565b7f4e487b7100000000000000000000000000000000000000000000000000000000600052602260045260246000fd5b60006002820490506001821680611ee357607f821691505b60208210811415611ef757611ef6611e9c565b5b50919050565b7f4e487b7100000000000000000000000000000000000000000000000000000000600052603260045260246000fd5b7f4e487b7100000000000000000000000000000000000000000000000000000000600052601160045260246000fd5b6000611f66826115b4565b91507fffffffffffffffffffffffffffffffffffffffffffffffffffffffffffffffff821415611f9957611f98611f2c565b5b600182019050919050565b7f5573657220616c726564792068617320616e206163636f756e74210000000000600082015250565b6000611fda601b83611dd0565b9150611fe582611fa4565b602082019050919050565b6000602082019050818103600083015261200981611fcd565b9050919050565b7f55736572206e616d652073686f756c64206e6f7420626520656d707479210000600082015250565b6000612046601e83611dd0565b915061205182612010565b602082019050919050565b6000602082019050818103600083015261207581612039565b9050919050565b7f4e6f20706f737473000000000000000000000000000000000000000000000000600082015250565b60006120b2600883611dd0565b91506120bd8261207c565b602082019050919050565b600060208201905081810360008301526120e1816120a5565b9050919050565b7f55736572206e6f74207265676973746572656421000000000000000000000000600082015250565b600061211e601483611dd0565b9150612129826120e8565b602082019050919050565b6000602082019050818103600083015261214d81612111565b9050919050565b7f43726561746520616e206163636f756e74206669727374000000000000000000600082015250565b600061218a601783611dd0565b915061219582612154565b602082019050919050565b600060208201905081810360008301526121b98161217d565b9050919050565b7f55736572206973206e6f74207265676973746572656400000000000000000000600082015250565b60006121f6601683611dd0565b9150612201826121c0565b602082019050919050565b60006020820190508181036000830152612225816121e9565b9050919050565b60008160601b9050919050565b60006122448261222c565b9050919050565b600061225682612239565b9050919050565b61226e612269826114d8565b61224b565b82525050565b6000612280828561225d565b601482019150612290828461225d565b601482019150819050939250505056fea2646970667358221220937de52c38eaf6310b06c8f88da83e28c159aa3304a6538f09bf04ce9cac04ec64736f6c63430008090033",
  "linkReferences": {},
  "deployedLinkReferences": {}
}